S00700006D61696E53
S11320008E3047BD20BE7F30027F3003B63006815C
S113201005261E3C183CFE30043C18CE3001BD227F
S113202061381838382403BD20D418CE3000BD21BF
S1132030CF18CE3000BD20E6B73007B63006810099
S1132040271681012725810227348103273581043E
S1132050274481052753205B18FE3004183CBD2219
S1132060E6183818FF30042542204518FE300418BD
S11320703CBD22C9183818FF3004252F2032BD205A
S1132080BE203818FE3004183CBD22AC183818FFA6
S113209030042517201A18FE3004183CBD227A1883
S11320A03818FF3004250420072008BD20D4200B55
S11320B05D2700B63007B7300620007E2006BD211C
S11320C0FFBD21E9CE0000FF3004FF30027F30065F
S11320D07F30073918CE4000BD21CFBD2157810C78
S10920E026F9BD20BE3903
S107400045525220AF
S11320E63CC602373630183CC602183AA6008102AE
S11320F627598105263BBD2157810923F9186F000D
S1132106186F01BD21E9800A2041BD2157810923A9
S113211615800A81022631C602E10127278620BDE1
S1132126231F6C01200B6D0127078B30BD23016A29
S11321360118A600C601BD21F818A601C600BD21D6
S1132146F87E2110C6002003BD220F18383131381D
S11321563937860EB71003C600BD21902427860D95
S1132166B71003C601BD2190241B860BB71003C606
S113217602BD2190240F8607B71003C603BD219024
S113218624030D2001173325C8393686043DB610BD
S11321960384F081F0272F81E02604860020148131
S11321A6D026048601200C81B026048602200486EB
S11321B60320001B16B61003B71003B6100384F0F1
S11321C681F026F720010D3239183C3637C6045AF9
S11321D618A600F71005B7100418085D26F1333267
S11321E61838393637C6038620BD21F85A2AF833FB
S11321F63239F71005B710043936860FB71007B60B
S10C2206100284FEB71002323903
S113220F3618A6002704812026028630C63010C651
S113221F0A3D18A60127048120260286301BC630EA
S113222F10163239183C183018EC051A8303E723BB
S113223F030D201B186F04186F05CE000A02270A1E
S113224FCB3018E70618098F20F0CB3018E70618A3
S113225F38393C303637EC048F3C8F34BD22333859
S10E226FCDEF003218A70233323839DB
S113227A3637183C183018E6063718A60718E60247
S113228A3D18ED063218E6023D175F18E30618ED0D
S113229A061A8303E722030C20010D183833C600FB
S11322AA3239183C18303C365D270ECE00003A18F5
S11322BAEC04020CCDEF0420010D323818383936FB
S11322CA183C375F3718303CCDEE078F18A3008FC0
S11322DACDEF07383131C60018383239183C183076
S11322EA3CCDEE043A8C03E722060CCDEF04200120
S10A22FA0DC6003818383945
S11323013C3630183C37C60118A60118A700180836
S11323115A26F5A60018A7003318383238393C3646
S113232130183C37C601183A180918A60018A70135
S113233118095A26F5A60018A70133183832383976
S9030000FC
