S00B00006D61696E746573748F
S11320008E306FBD20CC7C30717F30027F3003B6C0
S1132010300A8105262618CE30003C183CFE3008D4
S11320203C18CE3001BD232F381838382403BD2086
S1132030E7183C18CE3000BD225D183818CE3000A9
S1132040BD20FDB7300BB6300A8100271681012769
S113205025810227348103273581042744810527FC
S11320605320A318FE3008183CBD23B4183818FFB9
S113207030082542244518FE3008183CBD23971823
S11320803818FF3008252F2432BD20CC203B18FE01
S11320903008183CBD237A183818FF300825172457
S11320A01A18FE3008183CBD2348183818FF3008A9
S11320B0250424072008BD20E7200E5D2700B63044
S11320C00BB7300A2003BD23D87E2006BD228DBD68
S11320D02277CE0000FF3008FF300286FABD23CFFE
S11320E07F300A7F300B39183C18CE3004BD225D96
S11020F01838BD21E5810C26F9BD20CC393E
S10B300020202020455252203B
S11320FD3CC602373630183CC602183AA600810099
S113210D27128101271B81022724810327228104A1
S113211D272B20363637862BC603BD228633322035
S113212D293637862DC603BD22863332201C201A4C
S113213D3637862FC603BD22863332200D363786B9
S113214D58C603BD2286333220008101260D363751
S113215D862DC603BD22863332205D81052659BDE9
S113216D21E5810923F9186F00186F013637862090
S113217DC600BD2286333236378620C601BD22867F
S113218D333236378620C602BD22863332800A208A
S113219D41BD21E581092315800A81022631C6023C
S11321ADE10127278620BD22DF6C01200B6D01275D
S11321BD078B30BD22C16A0118A600C601BD228657
S11321CD18A601C600BD22867E219EC6002003BD31
S11321DD229D18383131383937860EB71003C600B1
S11321EDBD221E2427860DB71003C601BD221E2451
S11321FD1B860BB71003C602BD221E240F8607B71C
S113220D1003C603BD221E24030D2001173325C858
S113221D393686043DB6100384F081F0272F81E012
S113222D26048600201481D026048601200C81B05A
S113223D260486022004860320001B16B61003B75D
S113224D1003B6100384F081F026F720010D323906
S113225D183C3637C6045A18A600F71005B71004F3
S113226D18085D26F133321838393637C6038620FF
S113227DBD22865A2AF8333239F71005B7100439BE
S113228D36860FB71007B6100284FEB71002323926
S113229D3618A6002704812026028630C63010C6C3
S11322AD0A3D18A60127048120260286301BC6305C
S11322BD101632393C3630183C37C60118A60118B1
S11322CDA70018085A26F5A60018A70033183832A7
S11322DD38393C3630183C37C601183A180918A657
S11322ED0018A70118095A26F5A60018A7013318D6
S11322FD38323839183C183018EC051A8303E723A3
S113230D030D201B186F04186F05CE000A02270A4F
S113231DCB3018E70618098F20F0CB3018E70618D4
S113232D38393C303637EC048F3C8F34BD230138BB
S10E233DCDEF003218A702333238390C
S11323483637183C183018E6063718A60718E60278
S11323583D18ED063218E6023D175F18E30618ED3E
S1132368061A8303E722030C20010D183833C6002C
S11323783239183C18303C365D270ECE00003A1826
S1132388EC04020CCDEF0420010D3238183839362C
S1132398183C375F3718303CCDEE078F18A3008FF1
S11323A8CDEF07383131C60018383239183C1830A7
S11323B83CCDEE043A8C03E722060CCDEF04200151
S10A23C80DC6003818383976
S11323CFB73070C600F730713937F63070C100225C
S11323DF0C18CEAAAA337E23E518CEBBBB7A307075
S10523EF33397C
S9030000FC
